:020000040800F2
:10000000E0060020BD0300089501000897010008E4
:10001000A1010008A3010008A501000800000000DC
:10002000000000000000000000000000A701000820
:10003000A901000800000000AB010008AD010008A4
:10004000D7030008D7030008D7030008D703000828
:10005000D7030008D7030008D7030008D703000818
:10006000D7030008D7030008D7030008D703000808
:10007000D7030008D7030008D7030008D7030008F8
:10008000D7030008D7030008D7030008D7030008E8
:10009000D7030008D7030008D7030008D7030008D8
:1000A000D7030008D7030008D7030008D7030008C8
:1000B000D7030008AF010008D7030008D7030008E2
:1000C000D7030008D7030008D7030008D7030008A8
:1000D000D7030008B1220008D7030008D70300089F
:1000E000D7030008D7030008D703000800F002F880
:1000F00000F03FF80AA090E8000C82448344AAF183
:100100000107DA4501D100F034F8AFF2090EBAE880
:100110000F0013F0010F18BFFB1A43F0010318473B
:100120003C5F00005C5F0000103A24BF78C878C1D3
:10013000FAD8520724BF30C830C144BF04680C60ED
:10014000704700000023002400250026103A28BF35
:1001500078C1FBD8520728BF30C148BF0B60704739
:10016000782902F08984002070471FB51FBD10B5A3
:1001700010BD02F0DBFD1146FFF7F7FF02F0FAF8C1
:1001800002F0F9FD03B4FFF7F2FF03BC02F02CF814
:1001900030BF0000704709A002F026FC00BFFEE758
:1001A000704770477047704770477047704710B589
:1001B0000121094801F00AFE10BD00000D0A486146
:1001C00072644661756C745F48616E646C65722020
:1001D0004552524F520D0A00000400400CB5002059
:1001E000019000906C48006840F480306A490860D3
:1001F00000BF6948006800F4003000900198401C7E
:100200000190009818B90198B0F5A06FF1D162483B
:10021000006800F4003010B10120009001E00020DF
:1002200000900098012843D15C48006840F010001D
:100230005A4908600846006820F003000860084634
:10024000006840F002000860534840685249486026
:100250000846406848600846406840F4806048604E
:100260000846406820F47C1048600846406840F426
:10027000E81048600846006840F08070086000BFE1
:100280004548006800F000700028F9D042484068F6
:1002900020F00300404948600846406840F00200F2
:1002A000486000BF3C48406800F00C000828F9D1C5
:1002B0000CBD10B5FFF792FF10BD10B536480068B1
:1002C00040F001003449086008464068344908405D
:1002D0003149486008460068324908402E490860A4
:1002E0000846006820F4802008600846406820F432
:1002F000FE0048604FF41F008860FFF7DAFF4FF000
:1003000000602949086010BD10B5002100200022BE
:10031000214B5B6803F00C0121B1042906D00829A8
:1003200028D107E0214B224C236027E01F4B204CB3
:10033000236023E0184B5B6803F47010164B5B6876
:1003400003F48032022303EB904022B9194B43435C
:10035000174C23600DE0104B5B6803F4003323B1AE
:10036000144B4343124C236003E0104B4343104CA7
:10037000236003E00D4B0E4C236000BF00BF064B13
:100380005B68C3F303130C4CE15C094B1B68CB4067
:10039000074C236010BD0000001002400020024006
:1003A0000000FFF8FFFFF6FE08ED00E000127A0003
:1003B0000000002000093D0004000020094880479B
:1003C00009480047FEE7FEE7FEE7FEE7FEE7FEE737
:1003D000FEE7FEE7FEE7FEE704480549054A064B4F
:1003E00070470000BB020008ED000008E00000209C
:1003F000E0060020E0020020E00200203149014335
:10040000314A1160704770B5002100230F22C47873
:1004100004B32D4C246804F4E064C4F5E064210ABC
:10042000C1F10403CA40447804FA03F1847814400B
:1004300021430901254C0678A155047804F01F05D5
:100440000124AC4005786D11AD0005F1E025C5F83B
:10045000004109E0047804F01F050124AC401C4D64
:100460000678761145F8264070BD1A4A0A400243C4
:10047000154B1B1F1A60704739B1134A121D1268C1
:100480000243114B1B1D1A6006E00F4A121D126831
:1004900082430D4B1B1D1A607047042808D14FF092
:1004A000E021096941F004014FF0E022116107E009
:1004B0004FF0E021096921F004014FF0E0221161C1
:1004C000704700000000FA050CED00E000E400E0D9
:1004D00080E100E080FFFF1F10B50446CC48844255
:1004E00008D10121042000F02DFB0021042000F0A0
:1004F00029FB46E0C748844208D10121082000F0CA
:1005000021FB0021082000F01DFB3AE0C248844294
:1005100008D10121102000F015FB0021102000F06F
:1005200011FB2EE0BD48844208D10121202000F0BB
:1005300009FB0021202000F005FB22E0B84884429E
:1005400008D10121402000F0FDFA0021402000F0F8
:10055000F9FA16E0B348844208D10121802000F066
:10056000F1FA0021802000F0EDFA0AE0AE48844262
:1005700007D10121801500F0E5FA0021A01500F057
:10058000E1FA10BD10B50121084600F0DBFA0021A8
:10059000012000F0D7FA10BD2DE9F04102460025F8
:1005A0000026002000230024002791F803C00CF04F
:1005B0000F0591F803C00CF0100CBCF1000F03D034
:1005C00091F802C04CEA050591F800C0BCF1000F9B
:1005D00031D0146800202BE04FF0010C0CFA00F32E
:1005E000B1F800C00CEA03069E4220D183004FF010
:1005F0000F0C0CFA03F7BC4305FA03FC4CEA0404A5
:1006000091F803C0BCF1280F06D14FF0010C0CFA91
:1006100000FCC2F814C00AE091F803C0BCF1480F16
:1006200005D14FF0010C0CFA00FCC2F810C0401CC0
:100630000828D1D31460B1F800C0BCF1FF0F34DD3D
:10064000546800202EE000F1080C4FF0010808FA71
:100650000CF3B1F800C00CEA03069E4221D18300DE
:100660004FF00F0C0CFA03F7BC4305FA03FC4CEAFD
:10067000040491F803C0BCF1280F05D100F1080C67
:1006800008FA0CF8C2F8148091F803C0BCF1480FC6
:1006900007D100F1080C4FF0010808FA0CF8C2F875
:1006A0001080401C0828CED35460BDE8F0814FF67E
:1006B000FF710180022181700421C17070470246E0
:1006C000002093680B400BB1012000E00020704730
:1006D0000146886880B2704702460020D3680B400C
:1006E0000BB1012000E0002070470146C86880B2CD
:1006F000704701617047416170470AB1016100E0D4
:1007000041617047C16070474FF480320A43826193
:100710008161826182698269704702460020434B91
:1007200018684FF68073184040EA021008433F4BA8
:10073000186070473E49C8617047F0B50A4600230B
:1007400000240021002500F00046B6F1004F02D140
:10075000364EF16901E0354E7168C0F3034583B24E
:1007600000F44016B6F5401F08D121F070612F4EFD
:10077000766826F070662D4F7E6012E000F48016D9
:10078000B6F5801F06D1032606FA05F4A14341F011
:10079000706106E0460D360103FA06F6B14341F0FA
:1007A000706122B1460D360103FA06F6314300F0BE
:1007B0000046B6F1004F02D11C4EF16101E01B4E24
:1007C0007160F0BD30B500228B071C0F0F2303FAB8
:1007D00004F2164B08338C1053F824309343134C17
:1007E00008348D1044F8253023468C1053F82430FB
:1007F0008C07240F00FA04F423430C4C08348D10AA
:1008000044F8253030BD0A49DC31086070470000EB
:1008100000080140000C014000100140001401409C
:1008200000180140001C0140002001400000014070
:1008300000002042DF48006840F00100DD49086008
:1008400008464068DC490840DA49486008460068C4
:10085000DA490840D74908600846006820F480203B
:1008600008600846406820F4FE0048604FF41F000E
:1008700088607047CF49096821F48031CD4A116002
:100880001146096821F480211160B0F5803F03D042
:10089000B0F5802F0ED106E0C649096841F48031D9
:1008A000C44A116007E0C349096841F4A021C14A64
:1008B000116000E000BF00BF704710B50146002284
:1008C000002300204A11012A02D1BA4C236806E015
:1008D000022A02D1B74C236A01E0B64C636A01F0E8
:1008E0001F02012494401C400CB1012000E00020B4
:1008F00010BD38B5002000900024002500BF312035
:10090000FFF7DBFF05460098401C00900098B0F50B
:10091000A06F01D0002DF2D03120FFF7CEFF08B13B
:10092000012400E00024204638BD01460020A14AF1
:10093000106820F0F80040EAC10010607047A0493C
:1009400008607047024600209A4B586820F47C10DB
:1009500042EA01031843974B58607047984908666C
:10096000704701460020934A506820F00300084376
:10097000506070478F48406800F00C007047014697
:1009800000208C4A506820F0F00008435060704707
:1009900001460020874A506820F4E0600843506018
:1009A000704701460020834A506820F4605040EAB6
:1009B000C1005060704729B17E4A527A02437D4B94
:1009C0005A7204E07B4A527A82437A4B5A727047D9
:1009D0007B49D8310860704701460020754A50684D
:1009E00020F440400843506070470021714A203293
:1009F0001170704A82F82010012802D004280AD110
:100A000004E001216B4A2032117005E00521694A9A
:100A10002032117000E000BF00BF704769490860D4
:100A200070476449096A0143624A11627047654927
:100A300044390860704730B50021002200240023AB
:100A40005C4D6D6805F00C0121B1042905D0082921
:100A500023D105E05C4D056022E05B4D05601FE0A1
:100A6000544D6D6805F47012524D6D6805F4803474
:100A7000022505EB92421CB9544D554305600BE02D
:100A80004C4D6D6805F400351DB1504D5543056062
:100A900002E04D4D5543056002E04B4D056000BF3F
:100AA00000BF444D6D6805F0F0010909484D6B5CCD
:100AB0000568DD4045603F4D6D6805F4E061090A59
:100AC000434D6B5C4568DD4085603A4D6D6805F4CB
:100AD0006051C90A3E4D6B5C4568DD40C560354DCF
:100AE0006D6805F44041890B3A4D6B5CC568B5FBF8
:100AF000F3F5056130BD29B12E4A526902432D4BF1
:100B00005A6104E02B4A526982432A4B5A6170476A
:100B100029B1284A92690243264B9A6104E0254A8A
:100B200092698243234B9A61704729B1214AD26965
:100B30000243204BDA6104E01E4AD26982431D4B16
:100B4000DA61704729B11B4AD2680243194BDA6057
:100B500004E0184AD2688243164BDA60704729B124
:100B6000144A12690243134B1A6104E0114A1269D4
:100B70008243104B1A617047124940390860704730
:100B80000F49C86470470B49C87170470948406AEB
:100B900040F0807007494862704701460020054ACE
:100BA00092680A400AB1012000E000207047014924
:100BB00088727047001002400000FFF8FFFFF6FE49
:100BC000000042428004424200127A0000093D00C7
:100BD000140000202400002010B50446FB48844285
:100BE00009D101218803FFF7ADFF00214FF48040B8
:100BF000FFF7A8FF32E0F648844209D101214804FA
:100C0000FFF7ADFF00214FF40030FFF7A8FF25E00C
:100C1000F048844209D101218804FFF7A0FF002198
:100C20004FF48020FFF79BFF18E0EB48844209D186
:100C30000121C804FFF793FF00214FF40020FFF7C4
:100C40008EFF0BE0E548844208D101210805FFF73B
:100C500086FF00214FF48010FFF781FF10BD2DE9C2
:100C6000F04786B005460E460024A24600BFA146C6
:100C70000027B08900B100BF2F462C8A4CF6FF70C8
:100C80000440F08804432C82AC894EF6F3100440F3
:100C9000B08831890843718908430443AC81AC8A28
:100CA0004FF6FF400440B0890443AC8201A8FFF72F
:100CB000C2FEC648874202D1DDF810A001E0DDF88F
:100CC0000CA0A88900F4004040B10AEBCA0000EB78
:100CD0000A1031684900B0FBF1F807E00AEBCA00DE
:100CE00000EB0A1031688900B0FBF1F86420B8FB12
:100CF000F0F004012009642101FB1089A88900F4A7
:100D0000004040B1322000EBC900B0FBF1F000F030
:100D10000700044308E0322000EB09106421B0FB17
:100D2000F1F000F00F0004432C8106B0BDE8F0871D
:100D30004FF41651016000218180C18001810C2196
:100D4000418100218181704710B502460020108A40
:100D50004FF2FF0318400B884C8823438C882343B1
:100D6000CC8823431843108210BD002101804180AC
:100D70008180C180704721B1828942F40052828112
:100D800004E082894DF6FF731A4082817047F0B506
:100D90000346002400260025002040F66A17B942C9
:100DA00000D100BF1846C1F3421401F01F0601270D
:100DB00007FA06F5012C01D10C3004E0022C01D118
:100DC000103000E014301AB107682F43076002E0CA
:100DD0000768AF430760F0BD1AB1838A0B43838273
:100DE00002E0838A8B4383827047028A4FF6F07356
:100DF0001A400282028A0A430282704782894FF2B5
:100E0000FF731A40828182890A438281704721B12F
:100E1000828942F00202828104E082894FF6FD73EA
:100E20001A4082817047028A4FF6DF731A400282AD
:100E3000028A0A430282704721B1028A42F4804248
:100E4000028204E0028A4BF6FF731A400282704766
:100E5000C1F308028280704701468888C0F3080009
:100E60007047818941F0010181817047028BD2B2C4
:100E70000283028B42EA012202837047028B02F452
:100E80007F420283028B0A430283704721B1828A28
:100E900042F02002828204E0828A4FF6DF731A4019
:100EA0008282704721B1828A42F01002828204E07D
:100EB000828A4FF6EF731A408282704721B1828A8C
:100EC00042F00802828204E0828A4FF6F7731A40E9
:100ED0008282704721B1828942F40042828103E01C
:100EE0008289C2F30E028281704721B1828A42F464
:100EF0000062828204E0828A4FF2FF731A4082828B
:100F00007047828A4FF6FB731A408282828A0A43B4
:100F10008282704721B1828A42F00202828204E01A
:100F2000828A4FF6FD731A40828270470246002083
:100F3000B1F5007F00D100BF13880B400BB1012039
:100F400000E00020704701F40072B2F5007F00D18C
:100F500000BFCA430280704770B5024600240023D8
:100F60000025002040F66A16B14200D100BFC1F34F
:100F7000421501F01F03012606FA03F3012D02D1E9
:100F80009689334006E0022D02D1168A334001E0F3
:100F9000968A33400C12012606FA04F4168834406F
:100FA00013B10CB1012000E0002070BD10B500228B
:100FB000002340F66A14A14200D100BF0A120124A6
:100FC0009440A3B2DC43048010BD0000003801400F
:100FD0000044004000480040004C004000500040E9
:100FE00010B50446FE48844208D10121C014FFF721
:100FF000A9FD0021E014FFF7A5FDC4E0B4F1804F86
:1010000008D101210846FFF7AAFD00210120FFF7C2
:10101000A6FDB8E0F348844208D101210220FFF781
:101020009EFD00210220FFF79AFDACE0EE488442CD
:1010300008D101210420FFF792FD00210420FFF7D1
:101040008EFDA0E0E948844208D101210820FFF785
:1010500086FD00210820FFF782FD94E0E4488442E9
:1010600008D101211020FFF77AFD00211020FFF7A1
:1010700076FD88E0DF48844208D101212020FFF777
:101080006EFD00212020FFF76AFD7CE0DA488442F3
:1010900008D101214014FFF755FD00216014FFF72E
:1010A00051FD70E0D548844209D10121C804FFF701
:1010B00049FD00214FF40020FFF744FD63E0D048D4
:1010C000844209D101210805FFF73CFD00214FF4BE
:1010D0008010FFF737FD56E0CA48844209D101214C
:1010E0004805FFF72FFD00214FF40010FFF72AFD00
:1010F00049E0C548844208D101214020FFF72FFD77
:1011000000214020FFF72BFD3DE0C048844208D17C
:1011100001218020FFF723FD00218020FFF71FFD24
:1011200031E0BB48844208D101218015FFF717FD4B
:101130000021A015FFF713FD25E0B648844209D130
:1011400001210804FFF7FEFC00214FF48030FFF777
:10115000F9FC18E0B048844209D101214804FFF7A6
:10116000F1FC00214FF40030FFF7ECFC0BE0AB4842
:10117000844208D101218804FFF7E4FC00214FF4E8
:101180008020FFF7DFFC10BD00220288944B9842BC
:101190000ED0994B98420BD0B0F1804F08D0914BB4
:1011A000984205D0904B984202D0904B984204D17F
:1011B0004FF68F731A404B881A438D4B984207D0D5
:1011C0008C4B984204D04FF6FF431A40CB881A4309
:1011D00002808B8883850B880385814B98420BD0D6
:1011E000854B984208D08B4B984205D08A4B984249
:1011F00002D08A4B984201D10B7A03860123838265
:10120000704770B5002400220023058C4FF6FE764F
:1012100035400584028C8388048B4FF68F752C40F3
:10122000B51E2C400D882C43751E2A400D892A437B
:101230004D882A436A4DA8420BD06F4DA84208D072
:10124000744DA84205D0744DA84202D0734DA842F7
:1012500013D14FF6F7752A404D892A434FF6FB7597
:101260002A408D882A434FF6FF652B404FF6FF55E5
:101270002B408D892B43CD892B4383800483CD88DC
:101280008586028470BD70B5002400220023058C81
:101290004FF6EF7635400584028C8388048B48F640
:1012A000FF752C404FF6FF452C400D884FF6FF761A
:1012B00006EA05252C434FF6DF752A400D8906EA1C
:1012C00005152A434D8806EA05152A43444DA842D0
:1012D00002D0494DA8421DD14FF67F752A404D8955
:1012E0004FF6FF7606EA05152A434FF6BF752A40EA
:1012F0008D8806EA05152A434FF6FF352B404FF23D
:10130000FF752B408D8906EA85052B43CD8906EABA
:1013100085052B4383800483CD880587028470BDB7
:1013200070B5002400220023058C4FF6FF6635407F
:101330000584028C8388848B4FF68F752C404FF682
:10134000FC752C400D882C434FF6FF552A400D8923
:101350004FF6FF7606EA05252A434D8806EA05255D
:101360002A431F4DA84202D0234DA8421DD14FF25F
:10137000FF752A404D894FF6FF7606EA05252A4378
:101380004FF6FF352A408D8806EA05252A434EF69A
:10139000FF752B404DF6FF752B408D8906EA05152C
:1013A0002B43CD8906EA05152B4383808483CD88A2
:1013B0008587028470BD70B5002200230024058C4F
:1013C0004EF6FF7635400584038C8488828B48F680
:1013D000FF752A404FF6FF452A400D8820E00000A7
:1013E000002C01400004004000080040000C0040B8
:1013F000001000400014004000340140004C014047
:10140000005001400054014000180040001C004002
:1014100000200040004001400044014000480140DD
:101420004FF6FF7606EA05252A434DF6FF752B4059
:101430000D8906EA05352B434D8806EA05352B4311
:10144000FA4DA84202D0FA4DA84208D14BF6FF75DA
:101450002C408D894FF6FF7606EA85152C43848053
:101460008283CD88A0F84050038470BD828B4FF2F8
:10147000FF331A408283828B4FF6FF7303EA012306
:101480001A4382837047F0B50C46154600220021AE
:101490000026078C4EF6FF7C07EA0C070784828B38
:1014A000018C4FF6FF7707EA043640F6FF473A40D3
:1014B0004FF6FF7707EA05273A434FF6FF7707EA2B
:1014C00003373A43D94FB8420ED0D94FB8420BD068
:1014D000B0F1804F08D0D74FB84205D0D64FB842B0
:1014E00002D0D64FB84206D14DF6FF77394046F4C8
:1014F0008057394305E047F6FF57394044F4805799
:10150000394382830184F0BD828B4FF6F3731A4016
:101510008283828B0A4382837047F0B50C4615465E
:10152000002200210026078C4FF6FF6C07EA0C070B
:101530000784828B018C4FF6FF7707EA04264FF66B
:101540000C773A404FF6FF7707EA03172F433A43E9
:10155000B64FB8420ED0B64FB8420BD0B0F1804F64
:1015600008D0B44FB84205D0B34FB84202D0B34F01
:10157000B84206D14FF6FF57394046F480773943D9
:1015800005E04FF2FF57394044F4807739438283B6
:101590000184F0BD028B4FF2FF331A400283028BAD
:1015A0004FF6FF7303EA01231A4302837047F0B535
:1015B0000C461546002200210026078C4FF6EF7CD2
:1015C00007EA0C070784028B018C4FF6FF7707EAC6
:1015D000041640F6FF473A404FF6FF7707EA033715
:1015E0003A434FF6FF7707EA05273A438F4FB84251
:1015F0000ED08F4FB8420BD0B0F1804F08D08D4F36
:10160000B84205D08C4FB84202D08C4FB84206D1B8
:101610004FF6DF77394046F01007394305E04FF6C3
:101620005F77394044F01007394302830184F0BDED
:10163000028B4FF6F3731A400283028B0A43028334
:101640007047F0B50C46154600220021068C4FF677
:10165000FE773E400684028B018C4FF60C763240BA
:101660007E1C06EA03162E433243704EB0420ED063
:101670006F4EB0420BD0B0F1804F08D06D4EB042EB
:1016800005D06D4EB04202D06C4EB04206D14FF63E
:10169000FD76314044F00106314305E04FF6F57622
:1016A000314044F00106314302830184F0BD70B53E
:1016B00005460C465D4885420ED05D4885420BD0FC
:1016C000B5F1804F08D05B48854205D05A48854225
:1016D00002D05A48854200D100E000BF208850B9AE
:1016E0002389A28861882846FFF7ABFFE188284656
:1016F000FFF79EFF25E0208804280AD12389A288CD
:1017000061882846FFF753FFE1882846FFF742FF2C
:1017100017E0208808280AD12389A28861882846F2
:10172000FFF7FBFEE1882846FFF7EEFE09E023897C
:10173000A28861882846FFF7A6FEE1882846FFF7C1
:1017400095FE70BD2DE9F04105460C4600260127A7
:10175000608808B9022600E00026A088012801D18F
:10176000022700E001272088A0B92389A288618888
:101770002846FFF766FFE1882846FFF759FF2389CF
:101780003A4631462846FFF712FFE1882846FFF720
:1017900001FF13E02389A28861882846FFF707FF2D
:1017A000E1882846FFF7F6FE23893A463146284667
:1017B000FFF747FFE1882846FFF73AFFBDE8F081D1
:1017C0000A884B881A438B881A43CB881A430B89A3
:1017D0001A434B891A438B891A43A0F84420704757
:1017E0004FF6FF71818000210180C180418001722C
:1017F00070470021018041808180C1800181418149
:101800008181C18170470021018041800121818057
:101810000021C180018170470021018041808180C9
:10182000C18001814181818170470000002C01400D
:10183000003401400004004000080040000C00405B
:1018400021B1028842F00102028004E002884FF6D2
:10185000FE731A400280704731B1B0F8442042F460
:101860000042A0F8442005E0B0F84420C2F30E0284
:10187000A0F8442070471AB183890B43838102E0AA
:1018800083898B43838170478182704741EA0203D9
:10189000A0F8483070471AB183890B43838102E076
:1018A00083898B438381704701894FF6F872114019
:1018B000018170470A46002101894FF68F73194054
:1018C00011430181704730B504460D462946204634
:1018D000FFF7F0FF208940F00700208130BD2DE99F
:1018E000F04104460D4616461F46602D06D13B4684
:1018F000012231462046FFF75AFE05E03B46012211
:1019000031462046FFF79DFE29462046FFF7D2FFCD
:10191000208940F007002081BDE8F08130B50C46F9
:1019200000210189C9B24FF6FF7505EA0325154369
:1019300025432943018130BD2DE9F04105460E467E
:1019400017469846002443463A4631462846FFF754
:10195000E5FF2C894FF6F870044044F007044FF679
:101960008F70044044F070042C81BDE8F081F0B524
:1019700004460D4616461F463B463246294620463B
:10198000FFF7CCFF208940F480402081F0BD018525
:10199000828270470A46002101884FF68F731940F2
:1019A000114301807047F0B50C4615461E460021D4
:1019B000002200230189028B038C4FF6F87739400F
:1019C00021434FF6FC473A4040F201173A434FF6A5
:1019D000DD773B404FF6FF7707EA06172F433B437F
:1019E000018102830384F0BD0A460021018B4FF67A
:1019F0008F7319401143018370470A460021018B00
:101A000048F6FF7319404FF6FF7303EA02231943A8
:101A1000018370470A460021818B4FF68F7319406E
:101A20001143818370470A460021818B48F6FF737A
:101A300019404FF6FF7303EA02231943818370476D
:101A400021B1028842F08002028004E002884FF651
:101A50007F731A400280704721B1828842F00402ED
:101A6000828004E082884FF6FB731A4082807047C0
:101A700021B1828842F00802828004E082884FF619
:101A8000F7731A408280704721B1828842F00102C8
:101A9000828004E082884FF6FE731A40828070478D
:101AA0000A460021018B4FF6F77319401143018359
:101AB00070470A460021018B4FF2FF7319404FF621
:101AC000FF7303EA02231943018370470A4600218A
:101AD000818B4FF6F77319401143818370470A4693
:101AE0000021818B4FF2FF7319404FF6FF7303EA19
:101AF00002231943818370470A460021018B4FF668
:101B0000FB7319401143018370470A460021018B82
:101B10004FF6FF3319404FF6FF7303EA02231943D0
:101B2000018370470A460021818B4FF6FB731940F1
:101B30001143818370470A460021818B4FF6FF33A2
:101B400019404FF6FF7303EA02231943818370475C
:101B50000A460021018B4FF67F7319401143018320
:101B600070470A460021018BC1F30E014FF6FF7347
:101B700003EA02231943018370470A460021818B3F
:101B80004FF67F7319401143818370470A46002145
:101B9000818BC1F30E014FF6FF7303EA0223194351
:101BA000818370470A460021018C4FF6FD7319406E
:101BB0001143018470470A460021018C4FF6F773E8
:101BC00019401143018470470A460021018C4FF6E9
:101BD000DF7319404FF6FF7303EA021319430184C0
:101BE00070470A460021018C4FF67F7319404FF66B
:101BF000FF7303EA02131943018470470A46002168
:101C0000018C4FF6FF5319404FF6FF7303EA02238E
:101C10001943018470470A460021018C4FF2FF737B
:101C200019404FF6FF7303EA0223194301847047FA
:101C30000A460021018C4DF6FF7319404FF6FF73E1
:101C400003EA023319430184704730B500230124AD
:101C50008C40A3B2048C9C430484048C02FA01F5EA
:101C6000ADB22C43048430BD30B5002304248C4035
:101C7000A3B2048C9C430484048C02FA01F5ADB237
:101C80002C43048430BD70B5034600200024184660
:101C9000183001258D40ACB21D8CA5431D8409B1BF
:101CA000082909D100EB6100056825F07005056081
:101CB0000568154305600EE00D1FC5F34E05284469
:101CC000056825F4E045056005684FF6FF7606EAED
:101CD00002263543056070BD21B1028842F0020240
:101CE000028004E002884FF6FD731A4002807047BC
:101CF00021B1028842F00402028004E002884FF61B
:101D0000FB731A400280704721B1828842F0800242
:101D1000828004E082884FF67F731A408280704789
:101D200002884FF6F7731A40028002880A43028045
:101D3000704782884FF68F731A40828082880A43E8
:101D40008280704702894FF6F8731A400281028937
:101D50000A430281704702894FF67F731A4002815D
:101D600002890A43028170478184704781857047E8
:101D7000818670470187704781877047A0F84010BF
:101D8000704702884FF6FF431A40028002880A43D8
:101D9000028070470146888E70470146088F704761
:101DA0000146888F70470146B1F8400070470146F0
:101DB000888C70470146088D704702460020138AC0
:101DC0000B400BB1012000E000207047CA430282A3
:101DD000704730B50246002000230024158A05EA2A
:101DE0000103958905EA010413B10CB1012000E05B
:101DF000002030BDCA430282704700004FF0E0214E
:101E0000096921F004014FF0E0221161C21700EBD3
:101E10005272C2F3C7022B4B1A701946097801EBB4
:101E20004102C2EBC1114FF6FF7202EAC101264A1C
:101E3000118070470146234A12784A434FF0E0234D
:101E40005A6100229A611A46126942F001021A612F
:101E500000BF4FF0E022106900F001021AB100F457
:101E60008032002AF5D04FF0E022126922F0010200
:101E70004FF0E0231A6100229A6170470146124A2E
:101E800012884A434FF0E0235A6100229A611A46B1
:101E9000126942F001021A6100BF4FF0E02210699E
:101EA00000F001021AB100F48032002AF5D04FF0A0
:101EB000E022126922F001024FF0E0231A610022B1
:101EC0009A617047280000202A000020B94A118832
:101ED0000A131303C1F3032203EB0223C1F303121A
:101EE00003EB021201F00F031A4491B24D2202706B
:101EF00043224270552282704322C27061220271D5
:101F0000702242713A2282714FF47A7291FBF2F29E
:101F100032B14FF47A7291FBF2F23032C27101E0C9
:101F20002022C2714FF47A7291FBF2F302FB13127A
:101F3000642392FBF3F230320272642291FBF2F3DB
:101F400002FB13120A2392FBF3F2303242720A228E
:101F500091FBF2F302FB1312303282724B22C272F7
:101F600062220273704770B50446934805682A469A
:101F700092A1204600F044FD70BD934A0A400243FE
:101F80008D4B08331A60704710B504462046FEF7A3
:101F900035FA10BDF8B504460D4617461E463046C4
:101FA000FFF7F2FF8DF800708DF801408DF80250B8
:101FB00001208DF803006846FEF725FAF8BD00B54C
:101FC000002082490861C8601420486100208861AF
:101FD000C8610846006840F0010008600846406893
:101FE0007B490840794948600846006879490840BB
:101FF000764908600846006820F48020086008469A
:10200000406820F4FE0048600020886000214FF006
:102010000060FFF7B2FF00BD10B5674810300068E0
:1020200040F004006449103108606848C06940F01D
:1020300080506649C8616848406840F480706649CD
:1020400048600846006840F00400086008460068E0
:1020500040F002000860FEF79BF810BD5F4856494B
:102060000C31086070475949896941F00101574AAC
:1020700091615B49496821F0E061594A516011461C
:10208000496841EA00615160704730B50446002557
:10209000FFF795FF4D48006840F480304B490860D9
:1020A00000BF4A480068400C0028FAD04FF4806016
:1020B00046494860A01EC4B20846406840EA8440D1
:1020C00048600846406840F48030486045480068F1
:1020D00040F03200434908603C48006840F080709E
:1020E0003A49086000BF39480068400E0028FAD01D
:1020F0003648406840F002003449486005E0334803
:102100004068C0F3870505F00305022DF7D130BD07
:1021100001460A2091FBF0F200FB12100A2291FB0B
:10212000F2F240EA0210C0B27047014601F00F001F
:102130000A1102EB820200EB4200C0B27047014676
:102140004FF47A7091FBF0F000034FF47A7291FB38
:10215000F2F302FB1312642392FBF3F240EA022033
:102160001A4691FBF2F302FB13120A2392FBF3F2DD
:1021700040EA02101A4691FBF2F302FB13121043DD
:1021800080B27047014608134FF47A725043C1F38E
:10219000032202EBC20303EB021200EB8200C1F345
:1021A000031202EB820200EB420001F00F02104426
:1021B00080B27047E0F7FF1F00ED00E0435055206C
:1021C00049443A253038580080FFFF1F0010024074
:1021D0000000FFF8FFFFF6FE007000400400FA0563
:1021E0000000014000200240014600BF704700BFD0
:1021F0005C4A128802F04002002AF9D0C2B2594B60
:102200001B1D1A80704710B586B0044655480C3027
:10221000008840F4807053490C31088008460088DB
:1022200040F0200008804FF4A063252203210846D7
:10223000FFF7B0FE012144F20400FEF769FC4948B3
:10224000FEF7CAFC4FF40070ADF8140003208DF8BF
:10225000160018208DF8170005A94348FEF79CF9D1
:102260004FF48060ADF8140004208DF8170005A924
:102270003D48FEF791F901940020ADF80800ADF853
:102280000A00ADF80C00ADF810000C20ADF80E00FF
:1022900001A93448FEF7E3FC012240F22551314800
:1022A000FEF775FD01212F48FEF765FD06B010BD54
:1022B00010B540F225512B48FEF74EFE002850D0B5
:1022C0002848FEF7C9FDC4B22848008800F4004041
:1022D000002846D12548008800F4804038B30A2CF5
:1022E0001ED00D2021490988C1F30D01204A505408
:1022F0001E480088401C1D49088008460088C0F31D
:102300000D0011460C5419480088401C17490880DC
:10231000084600884BF6FF7108401449088020E009
:102320001248008840F400401049088019E00D2C44
:1023300006D10E48008840F480400C49088010E027
:102340000A480088C0F30D0009490C54074800886A
:10235000401C06490880084600883E2801DD002010
:10236000088010BD00380140000801403000002006
:10237000400000201CB54FF4A060FFF705FE482088
:10238000FFF73CFD4FF49670FFF778FD00F08DF8F5
:10239000002000F0D0F964200090034602460B496B
:1023A00001900B4800F008FA0EE00120094908608E
:1023B0004FF4FA70FFF762FD00200749C1F8900161
:1023C0004FF4FA70FFF75AFDEFE7000000E1F50562
:1023D000A0860100900121420000214208B50121A0
:1023E0001C20FEF795FB4FF48060ADF80000032041
:1023F0008DF8020010208DF803006946FE48FEF7B4
:10240000CBF84FF4BA70ADF800006946FB48FEF710
:10241000C3F843F6FF70ADF800006946F848FEF7D0
:10242000BBF808BD10B5024680210023F54C23609F
:10243000002015E002EA010323B90023F14C0C341B
:10244000236003E00123EF4C0C3423600123ED4CA7
:10245000236049100023EC4CC4F88831431CD8B2E7
:102460000828E7DB10BD10B502464FF000410023FD
:10247000E44C2360002015E002EA010323B90023A5
:10248000E04C0C34236003E00123DE4C0C34236069
:102490000123DC4C236049080023DB4CC4F888315D
:1024A000431CD8B22028E7DB10BD70B5FFF796FFBC
:1024B0000020D6490860D649C1F89401D3490C39A7
:1024C0000860D24924390860CE4908310860CF49F4
:1024D000303908600120CC49C1F898010520FFF788
:1024E000CDFC0020C74910310860CA490860FFF7D9
:1024F00099FF002505E0C849485DFFF793FF681C78
:10250000C5B2042DF7DB0120C2490860002401E0B8
:10251000601CC4B20A2CFBDB0020BE49086001200D
:10252000FFF780FF002505E0BC49485DFFF77AFF13
:10253000681CC5B2042DF7DB0120B64908600024F1
:1025400001E0601CC4B20A2CFBDB0020B14908602A
:102550000220FFF767FF002505E0B149485DFFF75E
:1025600061FF681CC5B2042DF7DB0120A949086092
:10257000002401E0601CC4B20A2CFBDB0120A3494B
:1025800028390860002401E0601CC4B20A2CFBDB7F
:1025900000209E49283908600120FFF76FFC70BDBC
:1025A00010B500209B4908600E20FFF73BFF002478
:1025B00005E09C49085DFFF735FF601CC4B2082C9C
:1025C000F7DB0120934908609149C1F88C01002094
:1025D0008E492839086010BD2DE9F04781464846EC
:1025E00000F009FC0746904A904B00F017FC0546A6
:1025F00000F0D4FB04468B49CC71200A8871200C72
:102600004871200E0871FFF7CBFFBDE8F08710B5C9
:1026100004462046E11704EB91418913A4EB813174
:10262000090A804A1170E11704EB91418913A4EB68
:1026300081315170FFF7B4FF10BD7EB506467CA016
:10264000006802907BA103C9CDE900010020714917
:102650000860FFF7E7FE002404E002A9085DFFF729
:10266000E1FE641C042CF8DB01206A4908600020AC
:102670007249C1F8A8010E20FFF7D4FE002404E03F
:102680001DF80400FFF7CEFE641C082CF8DB0120C7
:102690006049086000205E49C1F88C0101205B4957
:1026A00028390860002008605A4908601620FFF7A2
:1026B000B9FE26B1012E04D0022E06D103E0604DF2
:1026C00005E0604D03E0604D01E05D4D00BF00BFDF
:1026D000002405E035F824108804FFF7C4FE641CCC
:1026E000B4F5806FF6DB01204A49086000205349A9
:1026F000C1F8A801FFF796FE9DF8080040F08000A1
:102700008DF80800002404E002A9085DFFF78AFEA6
:10271000641C042CF8DB01203E49086000203C4981
:10272000C1F88C0101203949283908600020384956
:10273000C1F88C017EBD3CB5054644A000680190FF
:1027400043A000680090012D05D19DF8010040F0E4
:1027500006008DF8010000202E490860FFF762FE98
:10276000002404E001A9085DFFF75CFE641C042C52
:10277000F8DB01202749086000203049C1F8A80192
:102780000120FFF74FFE002404E01DF80400FFF7CE
:1027900049FE641C042CF8DB01201E49086000205F
:1027A0001B49C1F88C010120184928390860002014
:1027B0001749C1F88C013CBD2DE9FF4F8BB08B460A
:1027C000DDE9189A00200790089005900690049083
:1027D000584600F010FB144A144BCDE9000100F0FC
:1027E0001DFBCDE9020100F0D9FA05460B9800F077
:1027F00002FB0D4A0D4B2DE0000C0140000801408A
:10280000001001408801214200002142B40122420F
:1028100000002242A88121423200002018600008F6
:102820001C6000083600002095D626E80B2E1140CB
:1028300040400000000001FFC00000040080214271
:102840001830000818400008185000080040000028
:1028500000480820CDE9000100F0E0FACDE90201CE
:1028600000F09CFA06460E9800F0C5FA574A584BFD
:10287000CDE9000100F0D2FACDE9020100F08EFAB4
:1028800007460D9800F0B7FA504A514BCDE90001C8
:1028900000F0C4FACDE9020100F080FA8046CDF8DC
:1028A00028A0CDF82490F0B28DF82300300A8DF8DE
:1028B0002200300C8DF82100300E8DF82000E8B297
:1028C0008DF81F00280A8DF81E00280C8DF81D00B9
:1028D000280E8DF81C0008F0FF008DF81B004FEA51
:1028E00018208DF81A004FEA18408DF819004FEAA9
:1028F00018608DF81800F8B28DF81700380A8DF8B6
:102900001600380C8DF81500380E8DF81400DDF81F
:10291000249009F0FF008DF81300DDF824904FEAB1
:1029200029208DF81200DDF828A00AF0FF008DF8AC
:102930001100DDF828A04FEA2A208DF810000020B1
:10294000244908600B20FFF76DFD002404E007A96F
:10295000085DFFF767FD641C082CF8DB01201D49AA
:10296000086000201C49C1F8A8010C20FFF75AFD9F
:10297000002404E005A9085DFFF754FD641C082C41
:10298000F8DB01201349086000201349C1F8A801B1
:102990000D20FFF747FD002404E004A9085DFFF7C0
:1029A00041FD641C042CF8DB01200A49086000206A
:1029B0000A49C1F88C010120094908600020074933
:1029C000C1F88C010FB0BDE8F08F000095D626E865
:1029D0000B2E1140A881214200802142000022429A
:1029E0008C012242704700000FB4044910B503AABD
:1029F000029800F085F910BC5DF814FB2C00002053
:102A00000FB41CB5074B06AA7B4469460090059895
:102A100000F05DF90020694600F06CF91CBC5DF81F
:102A200014FB0000E902000070B5044685690068E7
:102A3000C10601D5302600E02026C00707D070BDB2
:102A4000D4E9012130469047206A401C20626D1E67
:102A5000F6D570BD70B5044685690078C00707D10A
:102A600070BDD4E9012120209047206A401C2062DB
:102A70006D1EF6D570BD000070B504460D462146AA
:102A80001068AFF300802188090502D50F4A7A4407
:102A900002E00E4A7A440E32002104F1240305E0DC
:102AA00000F00F060009965D5E54491C0028F7D11E
:102AB00020780023000704D5702D02D009B102232D
:102AC00011322046BDE8704000F0A2B88E350000FB
:102AD0002DE9F05F894604464FF0000ADFF824B183
:102AE000FB44C0F820A02046E168884700287DD03C
:102AF000252806D0D4E901219047206A401C206295
:102B0000F1E700255F462046E16888472028064611
:102B100007DB312E05D2B81910F8200C08B1054397
:102B2000F1E7A80701D525F00405C4F81CA000278B
:102B3000C4F818A02A2E09D0304600F027F938B37F
:102B400004EB8708303EC8F8186019E059F8041BF8
:102B5000204604EB87029161E1688847012F064611
:102B600018D1E069002820DA25F020051DE0D8F80A
:102B7000180000EB800006EB40003038C8F8180061
:102B80002046E1688847064600F000F90028EED1AB
:102B9000012F0AD02E2E08D12046E16888477F1CDD
:102BA0000646022F45F02005C4DBA069002803DAA1
:102BB000404245F00105A061E80701D025F010056D
:102BC000A6B1A6F14100192802D8203645F40065C7
:102BD0004A463146204625604D46FDF7C1FA60B1B0
:102BE000012807D0ED1D25F0070000E007E000F107
:102BF000080978E705F1040975E730467AE7206AA5
:102C0000BDE8F09F6435000070477047704770471B
:102C10002DE9F0470D4699469246044600F12408F6
:102C20000168880604D5E06921F01001216000E008
:102C30000120A84201DD471B00E00027A1697A19A5
:102C400002EB0900081AA0612078C00602D42046D1
:102C5000FFF7EAFE002608E0D4E901211AF8060091
:102C60009047206A401C761C20624E45F4DB207899
:102C7000C0060AD52046FFF7D7FE06E0D4E90121B9
:102C800030209047206A401C2062381EA7F10107BF
:102C9000F4DC07E0D4E9012118F805009047206A28
:102CA000401C2062281EA5F10105F3DC2046FFF739
:102CB000D1FE2078000602D50220BDE8F087012071
:102CC000FBE7000001694A1C02610878704700B503
:102CD0008FB0CDE901310021059105497944CDE955
:102CE000031011466846FFF7F3FE0FB000BD000069
:102CF000E5FFFFFF0A6802F8010B0A607047000059
:102D0000074B70B50D467B44FFF7E1FF04462846AC
:102D100000F008F810B14FF0FF3070BD204670BDD4
:102D2000E5F4FFFF007B00F080007047754600F07F
:102D300029F8AE4605006946534620F0070085464F
:102D400018B020B5FDF748FBBDE820404FF0000665
:102D50004FF000074FF000084FF0000B21F0070183
:102D6000AC46ACE8C009ACE8C009ACE8C009ACE8C6
:102D7000C0098D4670470446AFF300802046FDF73A
:102D800001FA0000004870478000002030380A280F
:102D900001D2012070470020704700004FEA115314
:102DA000A3F58063D3F11E03A8BFD3F1200C08DB89
:102DB0004FF0004242EAC12252EA505232FA03F086
:102DC000704709420BD4102BC4BF0020704703F595
:102DD000787CBCF1FF3F05D04FF0FF3070474FF0DB
:102DE0000000704770B500F0C3F800BF499224801E
:102DF00000207047F0E7B0FA80F310FA03F10AD030
:102E0000C3F11D0303F580634FEA41504FEA0352BB
:102E100002EBD12170474FF000007047DFF848C146
:102E200070B51CEA111E1EBF1CEA13159EEA0C0F9A
:102E300095EA0C0F00F06F8081EA030423EA4C133B
:102E40004EEAD47E21EA4C1141F4801143F4801300
:102E5000AE44A1FB024CA0FB0365AEF17F7E3619A8
:102E600055EB0C05A1FB034C4CF10003A0FB021C2D
:102E700016EB0C06654153F10003094218BF46F0FA
:102E8000010613F4007F0BD14FEA03314FEA0530FE
:102E9000340341EA155140EA16506FF003020AE08C
:102EA0004FEAC3214FEAC520F40241EA555140EAF6
:102EB00056506FF0020202EB2E4201EB025585EAFA
:102EC000CE710AD05FEA440C18BF24F0004450F1E0
:102ED000000041F1000120EAD47040F2FE7C62451E
:102EE00000D270BDA84214BF4FF080444FF0404460
:102EF000002E08BF0024BEF1806FA8BFA1F1C04121
:102F0000BDE8704080F282804FF0000001F1C041C6
:102F100001F0004170479EEA0C0F0CEA131518BF30
:102F200095EA0C0F06D04FF0000081EA030E0EF078
:102F3000004170BD00F01CF88900013E00F007B8A8
:102F400000F009B84FEA430C5FEA5C5C08D081EA04
:102F5000030100F05BB84FEA410C5FEA5C5CF6D11C
:102F60004FF00000014970470000FF070000F87FA4
:102F70000EF1020E2EF0030E5EF8046B364205D4FD
:102F8000012A43EB030515F5001F12D8012841EB78
:102F9000010C1CF5001F0CD80ED14FEAD17C15F5A1
:102FA000001F0CEB4C0C0CF1020C08BF4CEBD37C5B
:102FB00004E04FF0080C01E04FEAD37C0CEB4C0529
:102FC00026FA05F606F00706B6F1040C06D20EEB5B
:102FD000860CBDE870404CF0010C6047DFE80CF057
:102FE000090B02024FF000414FF00000A1F5002153
:102FF00070BD19461046012851EB010418BFD4F5E5
:10300000001484BF002001F0004170BD0808A0F545
:1030100000114FEA31017047000000001F0000005E
:103020003F0000005F0000007F0000009F000000E4
:10303000BF000000DF000000FF0000001F010000D3
:103040003F0100005F0100007F0100009F010000C0
:10305000BF010000DF010000FF0100001F020000AF
:103060003F0200005F0200007F0200009F0200009C
:10307000BF020000DF020000FF0200001F0300008B
:103080003F0300005F0300007F0300009F03000078
:10309000BF030000DF030000FF0300001F04000067
:1030A0003F0400005F0400007F0400009F04000054
:1030B000BF040000DF040000FF0400001F05000043
:1030C0003F0500005F0500007F0500009F05000030
:1030D000BF050000DF050000FF0500001F0600001F
:1030E0003F0600005F0600007F0600009F0600000C
:1030F000BF060000DF060000FF0600001F070000FB
:103100003F0700005F0700007F0700009F070000E7
:10311000BF070000DF070000FF0700001F080000D6
:103120003F0800005F0800007F0800009F080000C3
:10313000BF080000DF080000FF0800001F090000B2
:103140003F0900005F0900007F0900009F0900009F
:10315000BF090000DF090000FF0900001F0A00008E
:103160003F0A00005F0A00007F0A00009F0A00007B
:10317000BF0A0000DF0A0000FF0A00001F0B00006A
:103180003F0B00005F0B00007F0B00009F0B000057
:10319000BF0B0000DF0B0000FF0B00001F0C000046
:1031A0003F0C00005F0C00007F0C00009F0C000033
:1031B000BF0C0000DF0C0000FF0C00001F0D000022
:1031C0003F0D00005F0D00007F0D00009F0D00000F
:1031D000BF0D0000DF0D0000FF0D00001F0E0000FE
:1031E0003F0E00005F0E00007F0E00009F0E0000EB
:1031F000BF0E0000DF0E0000FF0E00001F0F0000DA
:103200003F0F00005F0F00007F0F00009F0F0000C6
:10321000BF0F0000DF0F0000FF0F00001F100000B5
:103220003F1000005F1000007F1000009F100000A2
:10323000BF100000DF100000FF1000001F11000091
:103240003F1100005F1100007F1100009F1100007E
:10325000BF110000DF110000FF1100001F1200006D
:103260003F1200005F1200007F1200009F1200005A
:10327000BF120000DF120000FF1200001F13000049
:103280003F1300005F1300007F1300009F13000036
:10329000BF130000DF130000FF1300001F14000025
:1032A0003F1400005F1400007F1400009F14000012
:1032B000BF140000DF140000FF1400001F15000001
:1032C0003F1500005F1500007F1500009F150000EE
:1032D000BF150000DF150000FF1500001F160000DD
:1032E0003F1600005F1600007F1600009F160000CA
:1032F000BF160000DF160000FF1600001F170000B9
:103300003F1700005F1700007F1700009F170000A5
:10331000BF170000DF170000FF1700001F18000094
:103320003F1800005F1800007F1800009F18000081
:10333000BF180000DF180000FF1800001F19000070
:103340003F1900005F1900007F1900009F1900005D
:10335000BF190000DF190000FF1900001F1A00004C
:103360003F1A00005F1A00007F1A00009F1A000039
:10337000BF1A0000DF1A0000FF1A00001F1B000028
:103380003F1B00005F1B00007F1B00009F1B000015
:10339000BF1B0000DF1B0000FF1B00001F1C000004
:1033A0003F1C00005F1C00007F1C00009F1C0000F1
:1033B000BF1C0000DF1C0000FF1C00001F1D0000E0
:1033C0003F1D00005F1D00007F1D00009F1D0000CD
:1033D000BF1D0000DF1D0000FF1D00001F1E0000BC
:1033E0003F1E00005F1E00007F1E00009F1E0000A9
:1033F000BF1E0000DF1E0000FF1E00001F1F000098
:103400003F1F00005F1F00007F1F00009F1F000084
:10341000BF1F0000DF1F0000FF1F00001F20000073
:103420003F2000005F2000007F2000009F20000060
:10343000BF200000DF200000FF2000001F2100004F
:103440003F2100005F2100007F2100009F2100003C
:10345000BF210000DF210000FF2100001F2200002B
:103460003F2200005F2200007F2200009F22000018
:10347000BF220000DF220000FF2200001F23000007
:103480003F2300005F2300007F2300009F230000F4
:10349000BF230000DF230000FF2300001F240000E3
:1034A0003F2400005F2400007F2400009F240000D0
:1034B000BF240000DF240000FF2400001F250000BF
:1034C0003F2500005F2500007F2500009F250000AC
:1034D000BF250000DF250000FF2500001F2600009B
:1034E0003F2600005F2600007F2600009F26000088
:1034F000BF260000DF260000FF2600001F27000077
:103500003F2700005F2700007F2700009F27000063
:10351000BF270000DF270000FF2700001F28000052
:103520003F2800005F2800007F2800009F2800003F
:10353000BF280000DF280000FF2800001F2900002E
:103540003F2900005F2900007F2900009F2900001B
:10355000BF290000DF290000FF2900001F2A00000A
:103560003F2A00005F2A00007F2A00009F2A0000F7
:10357000BF2A0000DF2A0000FF2A00001F2B0000E6
:103580003F2B00005F2B00007F2B00009F2B0000D3
:10359000BF2B0000DF2B0000FF2B00001F2C0000C2
:1035A0003F2C00005F2C00007F2C00009F2C0000AF
:1035B000BF2C0000DF2C0000FF2C00001F2D00009E
:1035C0003F2D00005F2D00007F2D00009F2D00008B
:1035D000BF2D0000DF2D0000FF2D00001F2E00007A
:1035E0003F2E00005F2E00007F2E00009F2E000067
:1035F000BF2E0000DF2E0000FF2E00001F2F000056
:103600003F2F00005F2F00007F2F00009F2F000042
:10361000BF2F0000DF2F0000FF2F00001F30000031
:103620003F3000005F3000007F3000009F3000001E
:10363000BF300000DF300000FF3000001F3100000D
:103640003F3100005F3100007F3100009F310000FA
:10365000BF310000DF310000FF3100001F320000E9
:103660003F3200005F3200007F3200009F320000D6
:10367000BF320000DF320000FF3200001F330000C5
:103680003F3300005F3300007F3300009F330000B2
:10369000BF330000DF330000FF3300001F340000A1
:1036A0003F3400005F3400007F3400009F3400008E
:1036B000BF340000DF340000FF3400001F3500007D
:1036C0003F3500005F3500007F3500009F3500006A
:1036D000BF350000DF350000FF3500001F36000059
:1036E0003F3600005F3600007F3600009F36000046
:1036F000BF360000DF360000FF3600001F37000035
:103700003F3700005F3700007F3700009F37000021
:10371000BF370000DF370000FF3700001F38000010
:103720003F3800005F3800007F3800009F380000FD
:10373000BF380000DF380000FF3800001F390000EC
:103740003F3900005F3900007F3900009F390000D9
:10375000BF390000DF390000FF3900001F3A0000C8
:103760003F3A00005F3A00007F3A00009F3A0000B5
:10377000BF3A0000DF3A0000FF3A00001F3B0000A4
:103780003F3B00005F3B00007F3B00009F3B000091
:10379000BF3B0000DF3B0000FF3B00001F3C000080
:1037A0003F3C00005F3C00007F3C00009F3C00006D
:1037B000BF3C0000DF3C0000FF3C00001F3D00005C
:1037C0003F3D00005F3D00007F3D00009F3D000049
:1037D000BF3D0000DF3D0000FF3D00001F3E000038
:1037E0003F3E00005F3E00007F3E00009F3E000025
:1037F000BF3E0000DF3E0000FF3E00001F3F000014
:103800003F3F00005F3F00007F3F00009F3F000000
:10381000BF3F0000DF3F0000DF3F0000BF3F000070
:103820009F3F00007F3F00005F3F00003F3F0000E0
:103830001F3F0000FF3E0000DF3E0000BF3E0000D3
:103840009F3E00007F3E00005F3E00003F3E0000C4
:103850001F3E0000FF3D0000DF3D0000BF3D0000B7
:103860009F3D00007F3D00005F3D00003F3D0000A8
:103870001F3D0000FF3C0000DF3C0000BF3C00009B
:103880009F3C00007F3C00005F3C00003F3C00008C
:103890001F3C0000FF3B0000DF3B0000BF3B00007F
:1038A0009F3B00007F3B00005F3B00003F3B000070
:1038B0001F3B0000FF3A0000DF3A0000BF3A000063
:1038C0009F3A00007F3A00005F3A00003F3A000054
:1038D0001F3A0000FF390000DF390000BF39000047
:1038E0009F3900007F3900005F3900003F39000038
:1038F0001F390000FF380000DF380000BF3800002B
:103900009F3800007F3800005F3800003F3800001B
:103910001F380000FF370000DF370000BF3700000E
:103920009F3700007F3700005F3700003F370000FF
:103930001F370000FF360000DF360000BF360000F2
:103940009F3600007F3600005F3600003F360000E3
:103950001F360000FF350000DF350000BF350000D6
:103960009F3500007F3500005F3500003F350000C7
:103970001F350000FF340000DF340000BF340000BA
:103980009F3400007F3400005F3400003F340000AB
:103990001F340000FF330000DF330000BF3300009E
:1039A0009F3300007F3300005F3300003F3300008F
:1039B0001F330000FF320000DF320000BF32000082
:1039C0009F3200007F3200005F3200003F32000073
:1039D0001F320000FF310000DF310000BF31000066
:1039E0009F3100007F3100005F3100003F31000057
:1039F0001F310000FF300000DF300000BF3000004A
:103A00009F3000007F3000005F3000003F3000003A
:103A10001F300000FF2F0000DF2F0000BF2F00002D
:103A20009F2F00007F2F00005F2F00003F2F00001E
:103A30001F2F0000FF2E0000DF2E0000BF2E000011
:103A40009F2E00007F2E00005F2E00003F2E000002
:103A50001F2E0000FF2D0000DF2D0000BF2D0000F5
:103A60009F2D00007F2D00005F2D00003F2D0000E6
:103A70001F2D0000FF2C0000DF2C0000BF2C0000D9
:103A80009F2C00007F2C00005F2C00003F2C0000CA
:103A90001F2C0000FF2B0000DF2B0000BF2B0000BD
:103AA0009F2B00007F2B00005F2B00003F2B0000AE
:103AB0001F2B0000FF2A0000DF2A0000BF2A0000A1
:103AC0009F2A00007F2A00005F2A00003F2A000092
:103AD0001F2A0000FF290000DF290000BF29000085
:103AE0009F2900007F2900005F2900003F29000076
:103AF0001F290000FF280000DF280000BF28000069
:103B00009F2800007F2800005F2800003F28000059
:103B10001F280000FF270000DF270000BF2700004C
:103B20009F2700007F2700005F2700003F2700003D
:103B30001F270000FF260000DF260000BF26000030
:103B40009F2600007F2600005F2600003F26000021
:103B50001F260000FF250000DF250000BF25000014
:103B60009F2500007F2500005F2500003F25000005
:103B70001F250000FF240000DF240000BF240000F8
:103B80009F2400007F2400005F2400003F240000E9
:103B90001F240000FF230000DF230000BF230000DC
:103BA0009F2300007F2300005F2300003F230000CD
:103BB0001F230000FF220000DF220000BF220000C0
:103BC0009F2200007F2200005F2200003F220000B1
:103BD0001F220000FF210000DF210000BF210000A4
:103BE0009F2100007F2100005F2100003F21000095
:103BF0001F210000FF200000DF200000BF20000088
:103C00009F2000007F2000005F2000003F20000078
:103C10001F200000FF1F0000DF1F0000BF1F00006B
:103C20009F1F00007F1F00005F1F00003F1F00005C
:103C30001F1F0000FF1E0000DF1E0000BF1E00004F
:103C40009F1E00007F1E00005F1E00003F1E000040
:103C50001F1E0000FF1D0000DF1D0000BF1D000033
:103C60009F1D00007F1D00005F1D00003F1D000024
:103C70001F1D0000FF1C0000DF1C0000BF1C000017
:103C80009F1C00007F1C00005F1C00003F1C000008
:103C90001F1C0000FF1B0000DF1B0000BF1B0000FB
:103CA0009F1B00007F1B00005F1B00003F1B0000EC
:103CB0001F1B0000FF1A0000DF1A0000BF1A0000DF
:103CC0009F1A00007F1A00005F1A00003F1A0000D0
:103CD0001F1A0000FF190000DF190000BF190000C3
:103CE0009F1900007F1900005F1900003F190000B4
:103CF0001F190000FF180000DF180000BF180000A7
:103D00009F1800007F1800005F1800003F18000097
:103D10001F180000FF170000DF170000BF1700008A
:103D20009F1700007F1700005F1700003F1700007B
:103D30001F170000FF160000DF160000BF1600006E
:103D40009F1600007F1600005F1600003F1600005F
:103D50001F160000FF150000DF150000BF15000052
:103D60009F1500007F1500005F1500003F15000043
:103D70001F150000FF140000DF140000BF14000036
:103D80009F1400007F1400005F1400003F14000027
:103D90001F140000FF130000DF130000BF1300001A
:103DA0009F1300007F1300005F1300003F1300000B
:103DB0001F130000FF120000DF120000BF120000FE
:103DC0009F1200007F1200005F1200003F120000EF
:103DD0001F120000FF110000DF110000BF110000E2
:103DE0009F1100007F1100005F1100003F110000D3
:103DF0001F110000FF100000DF100000BF100000C6
:103E00009F1000007F1000005F1000003F100000B6
:103E10001F100000FF0F0000DF0F0000BF0F0000A9
:103E20009F0F00007F0F00005F0F00003F0F00009A
:103E30001F0F0000FF0E0000DF0E0000BF0E00008D
:103E40009F0E00007F0E00005F0E00003F0E00007E
:103E50001F0E0000FF0D0000DF0D0000BF0D000071
:103E60009F0D00007F0D00005F0D00003F0D000062
:103E70001F0D0000FF0C0000DF0C0000BF0C000055
:103E80009F0C00007F0C00005F0C00003F0C000046
:103E90001F0C0000FF0B0000DF0B0000BF0B000039
:103EA0009F0B00007F0B00005F0B00003F0B00002A
:103EB0001F0B0000FF0A0000DF0A0000BF0A00001D
:103EC0009F0A00007F0A00005F0A00003F0A00000E
:103ED0001F0A0000FF090000DF090000BF09000001
:103EE0009F0900007F0900005F0900003F090000F2
:103EF0001F090000FF080000DF080000BF080000E5
:103F00009F0800007F0800005F0800003F080000D5
:103F10001F080000FF070000DF070000BF070000C8
:103F20009F0700007F0700005F0700003F070000B9
:103F30001F070000FF060000DF060000BF060000AC
:103F40009F0600007F0600005F0600003F0600009D
:103F50001F060000FF050000DF050000BF05000090
:103F60009F0500007F0500005F0500003F05000081
:103F70001F050000FF040000DF040000BF04000074
:103F80009F0400007F0400005F0400003F04000065
:103F90001F040000FF030000DF030000BF03000058
:103FA0009F0300007F0300005F0300003F03000049
:103FB0001F030000FF020000DF020000BF0200003C
:103FC0009F0200007F0200005F0200003F0200002D
:103FD0001F020000FF010000DF010000BF01000020
:103FE0009F0100007F0100005F0100003F01000011
:103FF0001F010000FF000000DF000000BF00000004
:104000009F0000007F0000005F0000003F000000F4
:104010001F00000000000000000000000000000081
:104020000000000000000000000000000000000090
:104030000000000000000000000000000000000080
:104040000000000000000000000000000000000070
:104050000000000000000000000000000000000060
:104810000000000000000000FF3F0000FF3F00001C
:10482000FF3F0000FF3F0000FF3F0000FF3F000090
:10483000FF3F0000FF3F0000FF3F0000FF3F000080
:10484000FF3F0000FF3F0000FF3F0000FF3F000070
:10485000FF3F0000FF3F0000FF3F0000FF3F000060
:10501000FF3F0000FF3F00006C0B0000510B000041
:10502000370B00001C0B0000020B0000E80A000018
:10503000CE0A0000B40A00009B0A0000820A0000A9
:105040006A0A0000520A00003B0A0000240A00001D
:105050000E0A0000F9090000E4090000D10900006F
:10506000BE090000AC0900009C0900008C0900008A
:105070007E09000070090000640900005909000061
:105080004F09000047090000400900003A090000EC
:105090003509000032090000300900003009000025
:1050A0003109000033090000370900003C09000005
:1050B000420900004A090000530900005E0900008F
:1050C00069090000770900008509000095090000C2
:1050D000A5090000B7090000CB090000DF090000A6
:1050E000F40900000A0A0000220A00003A0A00003F
:1050F000530A00006C0A0000870A0000A20A0000A0
:10510000BE0A0000DA0A0000F70A0000140B0000D3
:10511000320B00004F0B00006D0B00008C0B0000E9
:10512000AA0B0000C80B0000E60B0000040C0000F6
:10513000220C00003F0C00005C0C0000790C000009
:10514000950C0000B00C0000CB0C0000E50C00003A
:10515000FE0C0000170D00002E0D0000450D000094
:105160005A0D00006F0D0000820D0000940D00002C
:10517000A50D0000B40D0000C20D0000CF0D000011
:10518000DA0D0000E40D0000ED0D0000F30D00004D
:10519000F90D0000FD0D0000FF0D0000FF0D0000E7
:1051A000FF0D0000FC0D0000F80D0000F20D0000E6
:1051B000EB0D0000E20D0000D70D0000CB0D00004C
:1051C000BE0D0000AF0D00009E0D00008C0D000014
:1051D000790D0000640D00004E0D0000360D00003A
:1051E0001E0D0000040D0000E90C0000CD0C0000B5
:1051F000B00C0000920C0000740C0000540C000075
:10520000340C0000130C0000F10B0000CF0B000069
:10521000AD0B00008A0B0000670B0000440B000080
:10522000210B0000FD0A0000DA0A0000B70A0000A6
:10523000940A0000720A0000500A00002E0A0000C2
:105240000E0A0000ED090000CE090000AF090000C1
:105250009109000075090000590900003E0900008D
:10526000250900000D090000F6080000E108000013
:10527000CD080000BA080000A90800009A08000044
:105280008D08000081080000770800006E0800000B
:105290006808000063080000600800005F08000064
:1052A0006008000063080000680800006E08000045
:1052B00077080000810800008D0800009B080000AE
:1052C000AB080000BD080000D0080000E6080000A0
:1052D000FC080000150900002F0900004B09000020
:1052E0006809000086090000A6090000C80900003E
:1052F000EA0900000E0A0000320A0000580A000005
:105300007E0A0000A60A0000CE0A0000F70A00008C
:10531000200B0000490B0000730B00009E0B0000E7
:10532000C80B0000F30B00001D0C0000470C000030
:10533000710C00009B0C0000C40C0000EC0C000081
:10534000140D00003B0D0000620D0000870D0000F1
:10535000AB0D0000CE0D0000F00D0000110E00009E
:10536000300E00004D0E0000690E0000830E00009C
:105370009C0E0000B30E0000C80E0000DB0E000003
:10538000EB0E0000FA0E0000070F0000120F0000E5
:105390001A0F0000200F0000240F0000260F00004D
:1053A000250F0000220F00001D0F0000160F000047
:1053B0000C0F0000FF0E0000F10E0000E00E0000D8
:1053C000CD0E0000B80E0000A00E0000860E0000FA
:1053D0006A0E00004D0E00002D0E00000B0E0000A6
:1053E000E70D0000C20D00009A0D0000720D0000D4
:1053F000470D00001B0D0000EE0C0000BF0C00006C
:10540000900C00005F0C00002D0C0000FA0B000057
:10541000C70B0000930B00005E0B0000290B00007F
:10542000F40A0000BF0A00008A0A0000550A0000C2
:10543000200A0000EB090000B70900008409000001
:10544000510900001F090000EF080000BF0800001C
:105450009108000064080000380800000E080000F1
:10546000E6070000C00700009C0700007A07000064
:105470005A0700003C070000200700000707000053
:10548000F1060000DD060000CB060000BD060000AE
:10549000B1060000A8060000A20600009F0600005A
:1054A0009F060000A1060000A7060000B00600004D
:1054B000BC060000CA060000DC060000F106000081
:1054C00009070000230700004107000062070000F1
:1054D00085070000AB070000D4070000FF070000AD
:1054E0002D0800005D08000090080000C5080000BD
:1054F000FD0800003609000071090000AE09000037
:10550000ED0900002D0A00006F0A0000B20A000039
:10551000F60A00003B0B0000810B0000C80B0000E6
:105520000F0C0000570C00009F0C0000E70C00005F
:105530002E0D0000760D0000BC0D0000030E0000D3
:10554000480E00008C0E0000D00E0000110F00006D
:10555000520F0000900F0000CD0F00000810000057
:105560004010000076100000AA100000DB100000C0
:1055700009110000341100005D11000082110000CB
:10558000A3110000C1110000DC110000F3110000A4
:10559000061200001512000021120000281200005F
:1055A0002B1200002A120000251200001C1200001D
:1055B0000E120000FC110000E6110000CB110000EB
:1055C000AC110000891100006211000036110000CA
:1055D00006110000D2100000991000005D100000BC
:1055E0001D100000D90F0000910F0000460F0000B1
:1055F000F70E0000A50E00004F0E0000F70D000092
:105600009B0D00003D0D0000DD0C00007A0C000039
:10561000140C0000AD0B0000440B0000D90A000080
:105620006D0A0000000A0000920900002409000031
:10563000B508000046080000D70700006807000012
:10564000FA0600008D06000021060000B6050000E5
:105650004D050000E6040000810400001F04000066
:10566000BF030000630300000A030000B40200004F
:105670006202000014020000CB010000860100005D
:10568000460100000B010000D5000000A50000004D
:105690007A000000560000003800000020000000E2
:1056A0000E000000030000000000000003000000E6
:1056B0000D0000001F00000038000000590000002D
:1056C00081000000B2000000EA0000002A01000092
:1056D00072010000C20100001A0200007A020000FC
:1056E000E202000053030000CB0300004C04000062
:1056F000D404000064050000FC0500009C060000C6
:1057000044070000F2070000A90800006609000035
:105710002B0A0000F60A0000C80B0000A10C0000D4
:10572000800D0000650E00004F0F000040100000CB
:105730003511000030120000301300003414000056
:105740003C15000048160000581700006B180000B8
:1057500080190000991A0000B31B0000D01C000043
:10576000EE1D00000D1F00002D2000004D21000047
:105770006E2200008E230000AD240000CC25000026
:10578000E9260000042800001C290000332A00003C
:10579000462B0000562C0000622D00006A2E0000EF
:1057A0006E2F00006C300000663100005A3200009D
:1057B000483300003034000012350000ED350000A1
:1057C000C03600008C370000513800000D39000051
:1057D000C13900006D3A0000103B0000AA3B0000F8
:1057E0003A3C0000C13C00003F3D0000B33D0000DA
:1057F0001C3E00007C3E0000D13E00001C3F00002B
:105800005D3F0000923F0000BE3F0000DE3F000011
:10581000F43F0000FF3F0000FF3F0000F43F0000A6
:10582000DE3F0000BE3F0000923F00005D3F0000F1
:105830001C3F0000D13E00007C3E00001C3E0000EA
:10584000B33D00003F3D0000C13C00003A3C000079
:10585000AA3B0000103B00006D3A0000C139000077
:105860000D390000513800008C370000C0360000B0
:10587000ED350000123500003034000048330000E0
:105880005A320000663100006C3000006E2F0000BC
:105890006A2E0000622D0000562C0000462B0000EE
:1058A000332A00001C29000004280000E92600001B
:1058B000CC250000AD2400008E2300006E220000E5
:1058C0004D2100002D2000000D1F0000EE1D0000E6
:1058D000D01C0000B31B0000991A000080190000C2
:1058E0006B18000058170000481600003C15000017
:1058F0003414000030130000301200003511000095
:10590000401000004F0F0000650E0000800D0000E9
:10591000A10C0000C80B0000F60A00002B0A0000D2
:1059200066090000A9080000F20700004407000013
:105930009C060000FC05000064050000D404000083
:105940004C040000CB03000053030000E2020000FF
:105950007A0200001A020000C20100007201000079
:105960002A010000EA000000B200000081000000EF
:1059700059000000380000001F0000000D0000006A
:105980000300000000000000030000000E00000003
:105990002000000038000000560000007A000000DF
:1059A000A5000000D50000000B010000460100002A
:1059B00086010000CB01000014020000620200001A
:1059C000B40200000A03000063030000BF030000EC
:1059D0001F04000081040000E60400004D050000E3
:1059E000B6050000210600008D060000FA06000042
:1059F00068070000D707000046080000B50800004F
:105A00002409000092090000000A00006D0A00004D
:105A1000D90A0000440B0000AD0B0000140C00007C
:105A20007A0C0000DD0C00003D0D00009B0D000015
:105A3000F70D00004F0E0000A50E0000F70E00004D
:105A4000460F0000910F0000D90F00001D1000004C
:105A50005D10000099100000D21000000611000037
:105A6000361100006211000089110000AC11000025
:105A7000CB110000E6110000FC1100000E12000026
:105A80001C120000251200002A1200002B12000038
:105A9000281200002112000015120000061200005A
:105AA000F3110000DC110000C1110000A31100007F
:105AB000821100005D110000341100000911000086
:105AC000DB100000AA10000076100000401000005B
:105AD00008100000CD0F0000900F0000520F0000D2
:105AE000110F0000D00E00008C0E0000480E0000C8
:105AF000030E0000BC0D0000760D00002E0D00000E
:105B0000E70C00009F0C0000570C00000F0C000079
:105B1000C80B0000810B00003B0B0000F60A0000E0
:105B2000B20A00006F0A00002D0A0000ED09000013
:105B3000AE0900007109000036090000FD080000F0
:105B4000C5080000900800005D0800002D08000056
:105B5000FF070000D4070000AB0700008507000026
:105B6000620700004107000023070000090700004A
:105B7000F1060000DC060000CA060000BC060000BA
:105B8000B0060000A7060000A10600009F06000066
:105B90009F060000A2060000A8060000B106000053
:105BA000BD060000CB060000DD060000F106000087
:105BB00007070000200700003C0700005A0700000C
:105BC0007A0700009C070000C0070000E6070000FD
:105BD0000E0800003808000064080000910800006A
:105BE000BF080000EF0800001F0900005109000075
:105BF00084090000B7090000EB090000200A00003A
:105C0000550A00008A0A0000BF0A0000F40A0000DA
:105C1000290B00005E0B0000930B0000C70B000077
:105C2000FA0B00002D0C00005F0C0000900C00002F
:105C3000BF0C0000EE0C00001B0D0000470D000023
:105C4000720D00009A0D0000C20D0000E70D00006B
:105C50000B0E00002D0E00004D0E00006A0E00001D
:105C6000860E0000A00E0000B80E0000CD0E000051
:105C7000E00E0000F10E0000FF0E00000C0F00000F
:105C8000160F00001D0F0000220F0000250F00005E
:105C9000260F0000240F0000200F00001A0F000044
:105CA000120F0000070F0000FA0E0000EB0E0000BC
:105CB000DB0E0000C80E0000B30E00009C0E0000BA
:105CC000830E0000690E00004D0E0000300E000033
:105CD000110E0000F00D0000CE0D0000AB0D000015
:105CE000870D0000620D00003B0D0000140D000048
:105CF000EC0C0000C40C00009B0C0000710C0000B8
:105D0000470C00001D0C0000F30B0000C80B000046
:105D10009E0B0000730B0000490B0000200B0000DD
:105D2000F70A0000CE0A0000A60A00007E0A000062
:105D3000580A0000320A00000E0A0000EA090000BA
:105D4000C8090000A60900008609000068090000D3
:105D50004B0900002F09000015090000FC08000095
:105D6000E6080000D0080000BD080000AB080000F5
:105D70009B0800008D0800008108000077080000E3
:105D80006E0800006808000063080000600800005A
:105D90005F08000060080000630800006808000059
:105DA0006E08000077080000810800008D080000E0
:105DB0009A080000A9080000BA080000CD080000F9
:105DC000E1080000F60800000D09000025090000A8
:105DD0003E09000059090000750900009109000002
:105DE000AF090000CE090000ED0900000E0A000016
:105DF0002E0A0000500A0000720A0000940A0000F7
:105E0000B70A0000DA0A0000FD0A0000210B0000BA
:105E1000440B0000670B00008A0B0000AD0B000074
:105E2000CF0B0000F10B0000130C0000340C00003D
:105E3000540C0000740C0000920C0000B00C000028
:105E4000CD0C0000E90C0000040D00001E0D000048
:105E5000360D00004E0D0000640D0000790D0000AD
:105E60008C0D00009E0D0000AF0D0000BE0D000067
:105E7000CB0D0000D70D0000E20D0000EB0D00007F
:105E8000F20D0000F80D0000FC0D0000FF0D0000F9
:105E9000FF0D0000FF0D0000FD0D0000F90D0000DA
:105EA000F30D0000ED0D0000E40D0000DA0D000020
:105EB000CF0D0000C20D0000B40D0000A50D0000C4
:105EC000940D0000820D00006F0D00005A0D0000BF
:105ED000450D00002E0D0000170D0000FE0C000007
:105EE000E50C0000CB0C0000B00C0000950C00008D
:105EF000790C00005C0C00003F0C0000220C00003C
:105F0000040C0000E60B0000C80B0000AA0B000008
:105F10008C0B00006D0B00004F0B0000320B0000DB
:105F2000140B0000F70A0000DA0A0000BE0A0000A5
:105F3000A20A0000870A00006C0A0000530A000051
:105F40003A0A0000220A00000A0A0000F4090000D0
:105F5000DF090000CB090000B7090000A509000017
:105F60009509000085090000770900006909000013
:105F70005E090000530900004A09000042090000C0
:105F80003C09000037090000330900003109000016
:105F90003009000030090000320900003509000016
:105FA0003A09000040090000470900004F090000BD
:105FB0005909000064090000700900007E09000012
:105FC0008C0900009C090000AC090000BE0900001B
:105FD000D1090000E4090000F90900000E0A0000E0
:105FE000240A00003B0A0000520A00006A0A00006E
:105FF000820A00009B0A0000B40A0000CE0A0000DA
:10600000E80A0000020B00001C0B0000370B000028
:10601000510B00006C0B000001000000050F413225
:1060200030313233343536373839414243444546CE
:1060300040305800303132333435363738396162C8
:1060400063646566403078000400000800000000CA
:106050000000000200010000100000007C60000849
:10606000000000204000000028010008BC6000087B
:1060700040000020A00600004401000800A24A04DD
:1060800000000000000000000102030406070809E8
:1060900000000000010203040102030406070809CE
:1060A000020406080000000000000000000000409C
:0C60B00000003FFF000025097B420000BB
:04000005080000ED02
:00000001FF
