:020000040800F2
:10000000800C00207902000895120008D50F000826
:100010009112000881030008691300080000000025
:100020000000000000000000000000009D12000819
:10003000850300080000000099120008A1120008C2
:10004000930200089302000893020008930200083C
:10005000930200089302000893020008930200082C
:10006000930200089302000893020008930200081C
:10007000930200089302000893020008930200080C
:1000800093020008930200089302000893020008FC
:1000900093020008930200089302000893020008EC
:1000A00093020008930200089302000893020008DC
:1000B00093020008930200089302000893020008CC
:1000C00093020008930200089302000893020008BC
:1000D00093020008930200089302000893020008AC
:1000E000930200089302000893020008930200089C
:1000F000930200089302000893020008930200088C
:10010000930200089302000893020008930200087B
:10011000930200089302000893020008930200086B
:10012000930200089302000893020008930200085B
:10013000930200089302000893020008930200084B
:10014000930200089302000893020008930200083B
:10015000930200089302000893020008930200082B
:10016000930200089302000893020008930200081B
:10017000930200089302000893020008930200080B
:1001800093020008930200089302000893020008FB
:100190009302000800000000930200089302000888
:1001A00093020008930200089302000893020008DB
:1001B00093020008930200089302000893020008CB
:1001C00093020008930200089302000893020008BB
:1001D000930200089302000800F002F800F03CF8D7
:1001E0000AA090E8000C82448344AAF10107DA4592
:1001F00001D100F031F8AFF2090EBAE80F0013F0A8
:10020000010F18BFFB1A43F001031847D416000072
:10021000F4160000103A24BF78C878C1FAD8520703
:1002200024BF30C830C144BF04680C607047000070
:100230000023002400250026103A28BF78C1FBD8EF
:10024000520728BF30C148BF0B6070471FB501F08F
:1002500031FB1FBD10B510BD00F031F81146FFF79E
:10026000F5FF01F085F800F04FF803B4FFF7F2FF57
:1002700003BC00F057F800000948804709480047D0
:10028000FEE7FEE7FEE7FEE7FEE7FEE7FEE7FEE746
:10029000FEE7FEE704480549054A064B70470000A3
:1002A000A5120008D901000880000020800C002061
:1002B0008004002080040020704770477047754616
:1002C00000F02CF8AE4605006946534620F00700C2
:1002D000854618B020B5FFF7DDFFBDE820404FF0A0
:1002E00000064FF000074FF000084FF0000BAC463F
:1002F000ACE8C009ACE8C009ACE8C009ACE8C0098A
:1003000021F007018D46704710B50446AFF3008019
:100310002046BDE81040FFF7A8BF00000048704726
:100320001800002001491820ABBEFEE7260002009D
:100330007047000040F20C02C0F30521C2F2000237
:100340001170507000F0B8BF80B501F0A2F99FEDB8
:100350000A0B53EC102B01F0AFF901F06DF940F2EC
:100360000C01C2F2000100BA4860BDE8804000F014
:10037000A3BF00BF00BF00BF95D626E80B2E1140DB
:10038000FEE7000070470000B0B5044600F0ECF84E
:10039000054640F20000C2F200004068611C18BF30
:1003A000044400BF00F0E0F8401BA042FAD3B0BD07
:1003B0002DE9F04F82B00D68002D00F0CB8041F2A6
:1003C000004400F13847C4F6000406224FEAB7267D
:1003D000A04208BF0522052E38BF4FEAB7220024ED
:1003E00001274FF0000E0026009209E00D6801364B
:1003F00035FA06F20EF1040E04F1020400F0AA80B0
:1004000007FA06FB15EA0B08F0D0D1F804A0032286
:100410000AF0030CACF10105A240012D6FEA0209BC
:1004200010D88268CD6802EA0902A5402A4382609A
:100430004268CAF3001522EA0B02B5402A43426023
:1004400006E000BFBCF1030F02D14FF0030C21E026
:10045000C2688D6802EA0902A5402A43BCF1020F76
:10046000C26017D16FF0030202EA560202440EF096
:100470001C030F25D2F820C005FA03FA0D692CEAF7
:100480000A0C05FA03F343EA0C031362D1F804A043
:100490000AF0030C02680CFA04F302EA09021A4398
:1004A0001AF4403F0260A1D041F26003C4F202039B
:1004B0001A6840F2004942F001021A601A68C4F258
:1004C000010902F001020192019A26F003024FF69F
:1004D000084A4A44CFF6FF7A52F80AC00EF00C05DB
:1004E0000F23009FAB402CEA030307FA05F52B43CB
:1004F00042F80A30D9F808C04B684CEA0805DA021D
:1005000058BF2CEA080540F20C4CC9F80850C4F258
:10051000010CDCF800209F0242EA080558BF22EADD
:100520000805CCF80050D9F804209D0342EA0807DA
:1005300058BF22EA0807C9F80470D9F80020DB0385
:1005400042EA080758BF22EA0807C9F800700127E5
:100550004CE700BF02B0BDE8F08F00001823002A6E
:1005600008BF2823C150704740F27800C2F2000053
:100570000068704740F2000040F27801C2F20000CB
:10058000C2F2000140680A68104408607047000029
:1005900080B5032000F078F80F2000F009F800285B
:1005A0001CBF012080BD00F029F8002080BD0000A4
:1005B00070B540F20006C2F200067168E1B104466F
:1005C00040F20800C2F200004FF47A720068B2FBF9
:1005D000F1F1B0FBF1F000F0E7FC0F2C4FF001055A
:1005E00008D838B94FF0FF3021460022002500F02E
:1005F0001FF83460284670BD012070BD82B041F202
:100600005800C4F20200816841F0010181608168F4
:1006100001F0010101910199016841F080510160EF
:10062000006800F080500090009802B000F0D0B850
:1006300010B54EF60C5CCEF2000CDCF80030C3F3C3
:10064000022E8EF00704042C28BF0424BEF10303FD
:100650004FF0FF3E0EFA04F438BF0023A143994047
:100660000EFA03F39A43114300F00F0200F16043C6
:100670000901043A03F564436244002848BF02F1CB
:100680000C03197010BD00004EF60C51CEF20001A3
:100690000A684FF6FF031A4060F30A2242F08060B6
:1006A00040F0FD7008607047B0F5007F42D0002830
:1006B00040F0808047F21400C4F2000050F8141C8F
:1006C000C26E01F4C06122F48072B1F5806FC2661F
:1006D0002ED150F8141C012262F34A2140F8141C58
:1006E00040F20801C2F200010968322251434DF67E
:1006F0008362C4F21B32A1FB0212910C0268520504
:1007000011D54A1C0FD0026852050CD559B10268A8
:10071000520508D5012906D00268520503D50229E1
:10072000A1F10401EAD10068400544BF03207047ED
:100730000020704747F21400C4F2000050F8141C67
:10074000C26E01F4C06142F48072B1F5806FC2667E
:10075000EED150F8141C012262F34A2140F8141C17
:1007600040F20801C2F200010968322251434DF6FD
:100770008362C4F21B32A1FB0212910C0268520583
:1007800011D54A1C0FD0026852050CD559B1026828
:10079000520508D5012906D00268520503D5022961
:1007A000A1F10401EAD10068400544BF032070476D
:1007B000BEE700BF47F21400C4F2000050F8141C5A
:1007C000022262F34A2140F8141C00207047000006
:1007D00047F20800C4F20000016841F48041016062
:1007E000704700002DE9F04700286DD042F2000A62
:1007F000C4F2020A0446DAF800000D4600F00F00C9
:1008000088420CD2DAF8000020F00F002843CAF822
:100810000000DAF8000000F00F00A84254D121686F
:1008200041F20808C807C4F2020803D1880740F162
:10083000D880BDE0606802283AD0032840D158F83B
:10084000082C920140D5D8F80420D8F8043042F2A0
:100850000046C3F3031302F00302D8F80470013317
:10086000C0F2F406032A04BF41F20026C0F27A0661
:10087000B6FBF3F2D8F80430C7F306277A43C3F384
:100880004163022707EB4303B2FBF3F24BF2004351
:10089000C0F2C4439A4261D9D8F8002012F0F00F98
:1008A00051D089075AD5A168002957D14BE000BF24
:1008B00058F8081C89035CBF0120BDE8F08707E0F9
:1008C00058F8081C490503D40120BDE8F08700BF93
:1008D000D8F8001001F00C0104293FD0D8F800101E
:1008E00001F00C01082939D0D8F8001001F00C01F2
:1008F0000C2933D1D8F80410D8F8042042F200476C
:10090000C2F3031201F00301D8F804300132C0F23F
:10091000F407032904BF41F20027C0F27A07B7FBAE
:10092000F2F1D8F80420C3F306235943C2F341621D
:10093000022303EB4202B1FBF2F14BF20042C0F2A0
:10094000C44291420AD9D8F80010082262F3071174
:100950004FF00109C8F8001002E000BF4FF0000995
:10096000D8F8001021F003010843C8F80000FFF791
:10097000FBFD064641F28837D8F80000616800F0B8
:100980000C00B0EB810F07D0FFF7EEFD801BB842E3
:10099000F2D90320BDE8F0872168880708D4B9F1AF
:1009A000000F1ED0D8F8000020F0F00017E000BFC4
:1009B000480705D5D8F8000040F4E060C8F800000A
:1009C000080706D5D8F80000072262F30D20C8F802
:1009D0000000D8F80000A26820F0F0001043C8F82A
:1009E0000000DAF8000000F00F00A8421BD9DAF886
:1009F000000020F00F002843CAF80000FFF7B4FD04
:100A0000064641F2883700BFDAF8000000F00F0018
:100A1000A84207D0FFF7A8FD801BB842F4D90320F5
:100A2000BDE8F0872168480707D5D8F80000E268DC
:100A300020F4E0601043C8F80000080708D5D8F893
:100A40000000216920F4605040EAC100C8F80000AD
:100A5000D8F8000042F20041C0F2F40100F00C00AE
:100A6000042808462DD0D8F8000000F00C00082813
:100A700041F20020C0F27A0023D0D8F8002002F022
:100A80000C020C2A1CD1D8F80420D8F8043002F04B
:100A90000302C3F30313D8F804700133032A08BF19
:100AA0000146B1FBF3F0D8F80410C7F30627C1F3F1
:100AB00041610222784302EB4101B0FBF1F000E01A
:100AC0000020D8F8001041F6CE02C1F30311C0F6A1
:100AD0000002515C40F2080201F01F0120FA01F10E
:100AE00040F20000C2F200000068C2F20002116091
:100AF000BDE8F047FFF75CBD2DE9F04182B000286A
:100B000000F006810446007841F20006C007C4F2F6
:100B1000020655D12078800774D42078000700F1B0
:100B200097802078400700F1B7802078800600F198
:100B30000781E069002840D0B16801F00C010C2960
:100B400040F05681012800F0E380F068216A00F04F
:100B500003028A4240F0DC80626A6FF00F0300F00B
:100B6000F00103EB0212914240F0D280A16A00F43E
:100B7000FE42B2EB012F40F0CB80E16A00F07842F8
:100B8000B2EBC16F40F0C480226B0023CFF6E0735C
:100B900003EA025200F4C001A2F50012914240F0B3
:100BA000B780616B4FF07E4202EA016100F0C060E5
:100BB00001F17E41884240F0AB800020F1E100BFAE
:100BC000B06800F00C01F06808295BD0032281F0C6
:100BD0000C0122EA00000844B0FA80F0400951D12B
:100BE0006068B0F5803F07D0B0F5A02F40F0D68008
:100BF000306840F480203060306840F480303060ED
:100C0000D7E000BFB068F16800F00C00042869D09C
:100C100001F0030180F00C0081F002010844B0FAF9
:100C200080F040095ED1E1683068002900F0CE8094
:100C300040F480703060FFF797FC0546306840054F
:100C400000F1EC80FFF790FC401B0228F6D920E170
:100C50006169D6F89400002900F08C8040F0010012
:100C6000C6F89400FFF780FC054600BFD6F8940054
:100C700080073FF556AFFFF777FC401B0228F5D9F8
:100C800007E100BF306880037FF544AF606800284B
:100C90007FF440AF3CE000BFB06D10F0805808D149
:100CA000B06D40F08050B065B06D00F080500190A4
:100CB000019847F20007C4F200073868C0052BD43A
:100CC000386840F480703860FFF74EFC054600BF7E
:100CD0003868C00520D4FFF747FC401B0228F7D92D
:100CE000D7E000BF3068400501D5E06880B170688A
:100CF000216920F0FE4040EA0160706040F200008F
:100D0000C2F200000068FFF753FC00283FF405AF73
:100D1000012002B0BDE8F081A068012808D00528B4
:100D200040F09A80D6F8900040F00400C6F8900099
:100D3000D6F8900040F00100C6F890009AE000BF9D
:100D4000A169D6F89800002970D040F00100C6F8DB
:100D50009800FFF709FC0546D6F8980080073FF594
:100D6000E8AEFFF701FC401B02284FF00300F3D967
:100D700017E100BF20F00100C6F89400FFF7F4FB74
:100D8000054600BFD6F8940080077FF5CAAEFFF78E
:100D9000EBFB401B0228F5D97BE000BF316800283F
:100DA00021F480313160316821F48021316000F01C
:100DB0008F80FFF7D9FB0546306880033FF5AAAE68
:100DC000FFF7D2FB401B6428F6D962E020F4807064
:100DD0003060FFF7C9FB0546306840057FF59DAEE2
:100DE000FFF7C2FB401B02284FF00300F4D9D8E004
:100DF0003168022821F0807131604FD1FFF7B4FBD8
:100E0000054600BF3068800140F18E80FFF7ACFBE3
:100E1000401B02284FF00300F4D9C2E0706821693A
:100E200020F0FE4040EA0160706076E620F00100AC
:100E3000C6F89800FFF798FB054600BFD6F8980063
:100E400080077FF576AEFFF78FFB401B02284FF03F
:100E50000300F3D9A5E000BFD6F89010002821F0D8
:100E60000101C6F89010D6F8901021F00401C6F8E0
:100E700090103DD0FFF778FB054641F2883700BF60
:100E8000D6F89000800745D4FFF76EFB401BB842B0
:100E9000F6D9032002B0BDE8F08100BFF0684FF63C
:100EA000FF7120F00300F060F068CFF6EE610840BB
:100EB000F060FFF759FB0446306880017FF57DAE96
:100EC000FFF752FB001B02284FF00300F4D968E043
:100ED000FFF74AFB054600BF306880037FF51AAE76
:100EE000FFF742FB401B64284FF00300F4D958E0A1
:100EF000FFF73AFB054641F2883700BFD6F890006D
:100F0000800707D5FFF730FB401BB8424FF00300C6
:100F1000F4D946E0B8F1000F7FF407AEB06D20F0D1
:100F20008050B06501E600BFF06848F20C01C0F2E5
:100F30009F1104F1200700EA010C8ECF6FF00F0023
:100F4000D4E90C5400EB02100022CFF6E07241EA23
:100F50000C0102EA05520843A2F500124FF07E454B
:100F600040EA032005EA0465104305F17E4540EAA6
:100F7000C7602843F060306840F080703060F068EF
:100F800040F08070F060FFF7EFFA044630688001AF
:100F90003FF513AEFFF7E8FA001B02284FF00300FD
:100FA000F4D902B0BDE8F081411E0020B0EB116F12
:100FB0001CBF012070474EF21002CEF200025160B9
:100FC0004EF62351CEF20001F0230B700721906002
:100FD00011607047FEE700002DE9F04740F214442D
:100FE000C4F60004D4F80004D4F800144FF6E075F9
:100FF000C0F2FF1500F0704005EA4111084405F108
:10100000380108444FF0000AC0F800A020682268A8
:1010100000F0704005EA421210440844C0F800A0F5
:10102000D4F80004D4F8001465F31B0005EA41115C
:101030000844C0F848A02068216800F0704005EA24
:10104000411108442844C0F83CA02068216800F001
:10105000704005EA4111084428444FF60048C0F8A2
:1010600030A0CFF6FF7854F8080054F8081000F0CC
:10107000704005F1440705EA4111384440F801A0E9
:10108000D4F80004D4F8001400F0704005F14C06C8
:1010900005EA411130444FF0010940F80190052064
:1010A00000F064F9D4F80004D4F8001400F07040A3
:1010B00005EA4111304440F801A02068216800F0A1
:1010C000704005EA4111384440F801A0002000F0CA
:1010D00091F9002000F08EF9402000F08BF90020FB
:1010E00000F088F9002000F085F92068216800F000
:1010F000704005EA4111384440F8019020682168A9
:1011000000F0704005EA4111384440F801A0012088
:1011100000F070F9012000F06DF9002000F06AF98C
:10112000002000F067F9002000F064F920682168D1
:1011300000F0704005EA4111384440F80190206801
:10114000216800F0704005EA4111384440F801A0E0
:10115000022000F04FF9052000F04CF90F2000F0BC
:1011600049F9412000F046F9322000F043F92068A7
:10117000216800F0704005EA4111384440F80190C0
:1011800054F8080054F8081000F0704005F15C02B3
:1011900005EA4111104440F8019054F8080054F851
:1011A000081000F0704005EA41110244012042F8A5
:1011B00001A0BDE8F04700F0D9B800002DE9F047E4
:1011C00086B0002741F24C000597C4F20200016886
:1011D00040F2004A41F0200101600168C4F6000AB3
:1011E00001F020010091009901680AF5806541F045
:1011F000040101600168002201F0040100910099DE
:1012000001684FF4446641F001010160016801F09A
:10121000010100910099016841F00201016000683C
:101220004FF4446100F00200009000982846FFF758
:1012300095F94FF090404FF4074100224FF40748D2
:10124000FFF78CF95046782100224FF07809FFF71C
:1012500085F9019601AE012428463146CDE90247C1
:101260000497FFF7A5F84FF090403146CDE901848F
:10127000CDE90377FFF79CF850463146CDE901945C
:10128000CDE90377FFF794F806B0BDE8F0870000DA
:10129000FEE70000FEE70000704700007047000016
:1012A000FFF768B94EF68850CEF20000016841F4AD
:1012B00070010160704700002DE9F0411424C4F66C
:1012C0000004D4F800044FF6E075D4F80014C0F21E
:1012D000FF1500F0704005F1440705EA411138445C
:1012E0004FF0000840F801800E2000F083F840F233
:1012F0000C06C2F20006307800F07CF8707800F03E
:1013000079F8B07800F076F8F07800F073F830797A
:1013100000F070F8707900F06DF8B07900F06AF8BC
:10132000F07900F067F8D4F80004D4F8001400F065
:10133000704005EA4111384401224250206821687A
:1013400000F0704005F15C0305EA41111844425079
:101350002068216800F0704005EA4111184440F807
:101360000180BDE8F0810000FEE70000FFF70CB847
:1013700094B0FFF70DF9002400200C94CDE90A4445
:10138000CDE90844FFF790F9012006904FF4803032
:1013900007900220032555210D90CDE90E50CDE98F
:1013A0001010CDE9120006A8FFF7A6FB20B1EFF35D
:1013B000108072B6FEE700BF0F20CDE9010501A83D
:1013C0000421CDE903440594FFF70CFA20B1EFF3B3
:1013D000108072B6FEE700BFFFF7F0FEFFF7FCFDDE
:1013E0004FF47A70FEF7B0FF43F6FF70FEF7A2FFEE
:1013F000FEE700002DE9F04140F21441C4F600017F
:101400000A680D6802F070434FF6E072C0F2FF12F6
:1014100002EA45151D4402F12C031D444FF0000C57
:101420004FF6004EC5F800C0CFF6FF7E51F80E40D3
:1014300051F80E5004F0704602F1400402EA4515DE
:101440002644C70977510D680E6805F0704502EA19
:1014500046163544EE184FF00108C6F800800E68B5
:101460000F6806F0704602EA47173E441E44C6F86D
:1014700000C051F80E7051F80E5007F07047C0F3DD
:10148000801602EA451527447E510D680E6805F066
:10149000704502EA461635441D44C5F800800D68C3
:1014A0000E6805F0704502EA461635441D44C5F83D
:1014B00000C051F80E6051F80E7006F07046C0F38F
:1014C000401502EA47172644F5510D680E6805F0ED
:1014D000704502EA461635441D44C5F800800D6883
:1014E0000E6805F0704502EA461635441D44C5F8FD
:1014F00000C051F80E6051F80E7006F07046C0F34F
:10150000001502EA47172644F5510D680E6805F0EC
:10151000704502EA461635441D44C5F800800D6842
:101520000E6805F0704502EA461635441D44C5F8BC
:1015300000C051F80E6051F80E7006F07046C0F30E
:10154000C00502EA47172644F5510D680E6805F0FC
:10155000704502EA461635441D44C5F800800D6802
:101560000E6805F0704502EA461635441D44C5F87C
:1015700000C051F80E6051F80E7006F07046C0F3CE
:10158000800502EA47172644F5510D680E6805F0FC
:10159000704502EA461635441D44C5F800800D68C2
:1015A0000E6805F0704502EA461635441D44C5F83C
:1015B00000C051F80E6051F80E7006F07046C0F38E
:1015C000400502EA47172644F5510D680E6805F0FC
:1015D000704502EA461635441D44C5F800800D6882
:1015E0000E6805F0704502EA461635441D44C5F8FC
:1015F00000C051F80E5051F80E7005F0704600F022
:10160000010002EA47172644F05108680F6800F00D
:10161000704002EA471738441844C0F80080086850
:10162000096800F0704002EA411108441844C0F80B
:1016300000C0BDE8F08100004FEA1153A3F58063BC
:10164000D3F11E03A8BFD3F1200C08DB4FF00042FA
:1016500042EAC12252EA505232FA03F0704709427C
:101660000BD4102BC4BF0020704703F5787CBCF16D
:10167000FF3F05D04FF0FF3070474FF0000070473C
:1016800070B500F0C3F800BF499224800020704775
:10169000F0E7B0FA80F310FA03F10AD0C3F11D03AA
:1016A00003F580634FEA03524FEA415002EBD12128
:1016B00070474FF00000704770B5DFF848C11CEA72
:1016C000111E1EBF1CEA13159EEA0C0F95EA0C0FA3
:1016D00000F06F8081EA03044EEAD47EAE4421EA32
:1016E0004C1123EA4C1341F4801143F48013AEF102
:1016F0007F7EA1FB024CA0FB0365361955EB0C0560
:10170000A1FB034C4CF10003A0FB021C16EB0C06E2
:10171000654153F10003094218BF46F0010613F476
:10172000007F0BD14FEA03314FEA053041EA1551F2
:1017300040EA165034036FF003020AE04FEAC32177
:101740004FEAC52041EA555140EA5650F4026FF085
:10175000020202EB2E4201EB025585EACE710AD05D
:101760005FEA440C18BF24F0004450F1000041F13E
:10177000000120EAD47040F2FE7C624500D270BDC8
:10178000A84214BF4FF080444FF04044002E08BFE1
:101790000024BEF1806FA8BFA1F1C041BDE8704038
:1017A00080F2828001F1C04101F000414FF0000061
:1017B00070470CEA13159EEA0C0F18BF95EA0C0F40
:1017C00006D081EA030E4FF000000EF0004170BD1C
:1017D00000F01CF88900013E00F007B800F009B8DD
:1017E0004FEA430C5FEA5C5C08D081EA030100F039
:1017F0005BB84FEA410C5FEA5C5CF6D102494FF0FE
:10180000000070470000FF070000F87F0EF1020E95
:101810002EF0030E5EF8046B364205D4012A43EB2A
:10182000030515F5001F12D8012841EB010C1CF52A
:10183000001F0CD80ED14FEAD17C0CEB4C0C0CF1F4
:10184000020C15F5001F08BF4CEBD37C04E04FF0F1
:10185000080C01E04FEAD37C0CEB4C0526FA05F6A8
:1018600006F00706B6F1040C06D20EEB860CBDE8B6
:1018700070404CF0010C6047DFE80CF0090B0202ED
:101880004FF00041A1F500214FF0000070BD194656
:101890001046012851EB010418BFD4F5001484BF91
:1018A000002001F0004170BD0808A0F500114FEACA
:1018B00031017047F1EE100A4FF6FF71C0F2C031EE
:1018C00020EA010040F04070E1EE100A704700008D
:1018D00000000000000001020304060708090000E0
:1018E0000019000800000020180000001402000881
:1018F0001819000818000020680C000030020008C9
:1019000010000000010000000024F4003FFF000070
:0819100025097B4200000000E4
:04000005080001D915
:00000001FF
